:100000000C9434000C9449000C9449000C94490061
:100010000C9449000C9449000C9449000C9449003C
:100020000C9449000C9449000C9449000C9449002C
:100030000C9449000C9449000C9449000C9449001C
:100040000C9449000C9449000C9449000C9449000C
:100050000C9449000C9449000C9449000C944900FC
:100060000C9449000C94490011241FBECFEFD8E036
:10007000DEBFCDBF11E0A0E0B1E0EAEAF2E002C0ED
:1000800005900D92AC34B107D9F70E944B000C9447
:1000900053010C9400000F931F93DF93CF93CDB7C0
:1000A000DEB763970FB6F894DEBF0FBECDBF0E94D8
:1000B000F8000E9426010E9430010E9447018E0133
:1000C0000F5F1F4F489975C0499973C081E00E9426
:1000D000F60080E00E9407019C01909389008093C4
:1000E0008800893C9105A8F4D801E0E0F1E083E1C3
:1000F00001900D928150E1F7F80107C08091C00096
:1001000085FFFCCF9093C600319690819923B1F77B
:10011000D9CF825D904083529140A8F4D801E3E1A9
:10012000F1E083E101900D928150E1F7F80107C001
:100130008091C00085FFFCCF9093C60031969081DE
:100140009923B1F7BFCFC9018E5F91408F3B9105D5
:10015000A8F4D801E6E2F1E083E101900D9281502C
:10016000E1F7F80107C08091C00085FFFCCF9093B4
:10017000C600319690819923B1F7A4CF265C324016
:100180002B53314008F09ECFD801E9E3F1E083E141
:1001900001900D928150E1F7F80107C08091C000F5
:1001A00085FFFCCF9093C600319690819923B1F7DB
:1001B00089CF80E00E94F60068EE73E080E090E076
:1001C0000E94E3007FCF20E030E040E050E0A0EA72
:1001D000BFE0FD013197F1F72F5F3F4F4F4F5F4F6A
:1001E0006217730784079507A0F7089585B90895E6
:1001F0005098209A8BB183608BB90895ECE7F0E0BA
:1002000080818064808387E880937A00089590914C
:100210007C00987F90937C0090917C008770892B64
:1002200080937C0080917A00806480937A00809132
:100230007A0084FFFCCF80917A00806180937A00FD
:100240002091780030917900C9010895ECE7F0E041
:1002500080818064808387E880937A00389A08954B
:10026000E0E8F0E0808183688083E1E8F0E080816D
:100270008A608083219A08958093C4009093C5007A
:1002800086E48093C20088ED8093C100089587E6DC
:100290008093C4001092C50086E48093C20088ED6C
:0A02A0008093C1000895F894FFCF89
:1002AA003230206465677265652043656C736975D1
:1002BA00730A003235206465677265652043656C90
:1002CA00736975730A00323920646567726565203F
:1002DA0043656C736975730A00333320646567720A
:0C02EA0065652043656C736975730A003C
:00000001FF
